:020000040800F2
:10000000980400209D010008AB1300084712000867
:10001000A9130008D5020008451B000800000000D5
:10002000000000000000000000000000AF13000806
:10003000D702000800000000AD130008B11300084B
:10004000B7010008B7010008B7010008B7010008B0
:10005000B7010008B7010008B7010008B7010008A0
:10006000B7010008B7010008B7010008B701000890
:10007000B7010008B7010008B7010008B701000880
:10008000B7010008B7010008B7010008B701000870
:10009000B7010008B7010008B7010008B701000860
:1000A000B7010008B7010008B7010008B701000850
:1000B000B7010008B70100088D140008B701000857
:1000C000B7010008B7010008B7010008B701000830
:1000D000B7010008391B0008B7010008B701000884
:1000E000B7010008B7010008B7010008B701000810
:1000F000B7010008B7010008B7010008B701000800
:10010000B7010008B7010008B7010008B7010008EF
:10011000B7010008B7010008B7010008B7010008DF
:10012000B7010008B7010008B7010008B7010008CF
:10013000B7010008B7010008B7010008B7010008BF
:10014000B7010008B7010008B7010008B7010008AF
:10015000B7010008B7010008B7010008B70100089F
:10016000B7010008B7010008B7010008B70100088F
:10017000B7010008B7010008B7010008000000003F
:10018000B7010008B7010008DFF80CD000F090F8C4
:1001900000480047151D00089804002006488047C5
:1001A00006480047FEE7FEE7FEE7FEE7FEE7FEE75C
:1001B000FEE7FEE7FEE7FEE73914000889010008C4
:1001C0002DE9F05F0546002092469B46884606468C
:1001D000814640241BE0284641464746224600F01F
:1001E00057F853465A46C01A914110D31146184643
:1001F000224600F03EF82D1A67EB01084F462246D2
:100200000120002100F035F817EB00094E41201EB7
:10021000A4F10104DFDC484631462A464346BDE8E6
:10022000F09FD2B201E000F8012B491EFBD27047CB
:100230000022F6E710B513460A4604461946FFF7B2
:10024000F0FF204610BD30B50B46014600202022AD
:10025000012409E021FA02F59D4205D303FA02F5D3
:10026000491B04FA02F52844151EA2F10102F1DC33
:1002700030BD202A04DB203A00FA02F1002070474A
:100280009140C2F1200320FA03F3194390407047D4
:10029000202A04DB203A21FA02F00021704721FADB
:1002A00002F3D040C2F12002914008431946704742
:1002B000064C074D06E0E06840F0010394E80700B3
:1002C00098471034AC42F6D3FFF762FF781D000860
:1002D000981D0008FEE77047704790F83510022916
:1002E00003D08021416501207047052180F8351039
:1002F0000068016821F001010160002070470000E2
:100300002DE9F84FDFF87CB100224FF001084FF0E3
:10031000030A4FF00F090BF1040E00BF0B6808FA37
:1003200002F42340A3426ED14D68022D01D0122D5C
:100330000ED1D50800EB850CDCF820505607F70EDF
:1003400009FA07F6B5430E69BE402E43CCF820608B
:10035000066855000F790AFA05FC07F0030726EA3C
:100360000C06AF40374307604E68012E05D0022EC1
:1003700003D0112E01D0122E0ED18668CF6826EA46
:100380000C06AF40374387604668A6430C79C4F338
:100390000014944034434460C6688C6826EA0C0616
:1003A000AC403443C4604C68E40065D5364C2568E5
:1003B00045F480452560246822F0030504F4804458
:1003C0000094324C2E19D6F8084895072F0F09FAD9
:1003D00007F5AC432E4DA84201D1002524E02D4D58
:1003E000A84201D101251FE02B4DA84201D10225D1
:1003F0001AE02A4DA84201D1032515E0284DA84254
:1004000002D1042510E037E0264DA84201D1052590
:100410000AE0254DA84201D1062505E0234DA8425A
:1004200001D1072500E00825BD402543C6F808583E
:10043000DBF800405D464E689C43F60300D51C4344
:100440002C60DEF8004075464E689C43B60300D52C
:100450001C432C600B4D08352C684E689C43F602FB
:1004600000D51C432C60074D0C352C684E689C430E
:10047000B60200D51C432C60521C102AFFF44EAF6C
:10048000BDE8F88F003C0140443802400030014094
:10049000000002400004024000080240000C02403C
:1004A000001002400014024000180240001C0240EC
:1004B0000AB1816170470904FBE7000001488068C8
:1004C000704700000400002002488168027811444F
:1004D00081607047040000200B4810B5016841F4AA
:1004E00000710160016841F480610160016841F4BC
:1004F00080710160032000F06FF8002000F006F822
:1005000000F024F8002010BD003C024070B50D4DF5
:1005100004464FF47A712878B1FBF0F00A49096873
:10052000B1FBF0F000F0E0FA48B9102C07D200223D
:100530002146501E00F030F800206C6070BD012094
:1005400070BD000004000020100000200A4808B51B
:10055000016841F480410160006800F4804000902F
:100560000548001F016841F080510160006800F0FB
:100570008050009008BD000044380240002809DB8C
:1005800000F01F02012191404009800000F1E020AD
:10059000C0F8001170470000F0B40E4B1B680C4609
:1005A000C3F30223C3F10705042D00D90425191D47
:1005B000072901D2002300E0DB1E012606FA05F11F
:1005C000491E214099409E40761E16403143F0BCA2
:1005D00001F0CABA0CED00E0064900F00702086815
:1005E0004FF6FF03184040EA0220034A1043086018
:1005F000704700000CED00E00000FA052DE9F0471F
:100600000E46050065D0DFF81481D8F80000F7B277
:1006100000F00F00B04207D288F80070D8F8000050
:1006200000F00F00B04254D128683D4C810712D52C
:10063000400703D5206840F4E05020602878000788
:1006400003D5206840F4604020602068A96820F04D
:10065000F000084320602878C0072DD03049686832
:100660000839012812D0022813D0032811D00968B4
:10067000890700292DDA216821F003010143216057
:10068000FFF71CFF814641F2883A0EE009688903B2
:10069000EFE709688901ECE7FFF710FFA0EB09011C
:1006A000514502D90320BDE8F0872068696800F051
:1006B0000C00B0EB810FEFD1D8F80010404601F0EC
:1006C0000F01B14207D90770006800F00F00B04277
:1006D00001D00120E7E72878400705D52068E968C0
:1006E00020F4E050084320602878000706D52068F1
:1006F000296920F4604040EAC100206000F036F82B
:100700002168084AC1F30311515CC84006490860DA
:100710000020FFF7FBFE0020C5E70000003C024080
:1007200008380240601D00081000002004480549F8
:1007300000680968044AC1F38221515CC8407047CF
:100740001000002008380240701D000804480549C8
:1007500000680968044AC1F34231515CC8407047DF
:100760001000002008380240701D0008154810B520
:10077000006810F00C02144813D04110042A0FD066
:10078000082A0ED10F4C241F2268236802F03F0272
:100790005B0207D52068C0F38810A0FB010106E0CA
:1007A000084610BD2168C1F38811A1FB0001002398
:1007B000FFF706FD2168C1F30141491C4900B0FB68
:1007C000F1F010BD083802400024F4002DE9F84F84
:1007D000050076D02878DFF8F8B2BE4CC00749D0C3
:1007E000DBF800105846C1F38101012908D00068E8
:1007F000C0F3810002280AD1201D0068400206D5FE
:100800002068800336D568680028E2D032E0686846
:10081000B0F5803F10D0B0F5A02F206810D020F4A4
:1008200080302060206820F4802020606868A0B1BB
:10083000FFF744FE06460CE0206840F48030F4E701
:1008400040F480202060F7E7FFF738FE801B642823
:1008500073D820688003F7D50CE0FFF72FFE06461B
:1008600005E000BFFFF72AFE801B6428F0D820684F
:100870008003F7D42878DFF8608280074FF0000902
:100880003ED5DBF80010584611F00C0F09D0006877
:10089000C0F3810002280BD18D48001F0068400280
:1008A00006D42068800715D5E868012809D111E031
:1008B000E868B8B10120C8F80000FFF7FFFD064660
:1008C00005E002E1FFF7FAFD801B0228C0D820688E
:1008D0008007F7D52068296920F0F80040EAC100B8
:1008E00020600DE0C8F80090FFF7E8FD064604E040
:1008F000FFF7E4FD801B02281FD820688007F7D48B
:100900002878000722D5724E744869696C3671B137
:1009100001210160FFF7D2FD074604E0FFF7CEFD9D
:10092000C01B022809D830688007F7D50EE0C0F850
:100930000090FFF7C3FD074605E083E0FFF7BEFD2B
:10094000C01B02287ED830688007F7D4287840077B
:1009500068D5DFF87CA100270AF1380ADAF8000030
:10096000C0000BD4DAF8001041F08051CAF8001032
:10097000DAF80000012700F080500090584E3068EF
:10098000C00510D4306840F480703060FFF796FDE9
:10099000009005E0FFF792FD0099401A022851D817
:1009A0003068C005F6D54A4EA868683601280FD0D1
:1009B0000528306810D020F001003060306820F049
:1009C00004003060A868B8B1FFF778FD00900FE030
:1009D000306840F00100F4E740F004003060F7E7D1
:1009E000FFF76CFD0099411A41F28830814264D8CA
:1009F00030688007F4D50EE0FFF760FD009007E057
:100A0000FFF75CFD0099411A41F28830814254D8C9
:100A100030688007F4D42FB1DAF8001021F080514B
:100A2000CAF80010A869C0B3DBF80010C1F3810157
:100A300002294AD00228484607D0C8F86000FFF7CC
:100A40003DFD00E039E005463AE04746C8F8600061
:100A5000FFF734FD064604E0FFF730FD801B022857
:100A60002BD820688001F7D4D5E907010843A96A8B
:100A70001C4A490802EB01416A6A41EA82110843B3
:100A800095F82C1040EA01611148001F0160012017
:100A90003866FFF713FD054605E014E0FFF70EFD8D
:100AA000401B022809D820688001F7D50BE000BF61
:100AB000FFF704FD401B022802D90320BDE8F88F90
:100AC00020688001F4D40020F8E70120F6E7000058
:100AD000083802400038024000004742800E47427A
:100AE000007000400000FFFF10B5401EB0F1807F95
:100AF00001D3012010BD4FF0E02460610F21601789
:100B000001F032F80020A06107202061002010BD14
:100B10007047704770B590F83C20012A19D0012425
:100B200000F83C4F0222427050F83C3C5A689D68E5
:100B300022F070060A684968324325F0800529438F
:100B40005A6050F83C2C91604470002101700846B6
:100B500070BD022070BD0168CA6842F00102CA601F
:100B60000068816801F00701062903D0016841F09F
:100B700001010160002070470168CA6822F001028B
:100B8000CA600068016A41F21112114207D1016A7C
:100B90009210114203D1016821F00101016000208F
:100BA0007047704770B50446006801694FF0000552
:100BB000C943890715D4C168C943890711D4E91EFF
:100BC000016101202077206880698007204602D0DB
:100BD000FFF7E7FF04E000F0C3F8204600F062F9F9
:100BE000257720680169C943490717D4C168C943FB
:100BF000490713D46FF004010161022020772068B7
:100C0000806910F4407F204602D0FFF7CAFF04E05D
:100C100000F0A6F8204600F045F925772068016924
:100C2000C943090716D4C168C943090712D46FF034
:100C300008010161042020772068C06980072046F0
:100C400002D0FFF7AEFF04E000F08AF8204600F083
:100C500029F9257720680169C943C90617D4C168F5
:100C6000C943C90613D46FF0100101610820207731
:100C70002068C06910F4407F204602D0FFF791FF42
:100C800004E000F06DF8204600F00CF925772068AC
:100C90000169C943C90708D1C168C943C90704D15B
:100CA000891E0161204600F04FF920680169C9439F
:100CB000090609D4C168C943090605D46FF080014B
:100CC00001612046FFF724FF20680169C9434906F6
:100CD00009D4C168C943490605D46FF040010161D8
:100CE000204600F057F920680169C94389060BD4F2
:100CF000C168C943890607D46FF02001016120460D
:100D0000BDE87040FFF705BF70BD000010B586B0AC
:100D1000044614216846FFF78BFA0E492068884282
:100D200015D10D480021026842F0080202600068F7
:100D300000F0080005904FF4805000900220CDE9AB
:100D400001010390049069460448FFF7D9FA06B000
:100D500010BD00000008004030380240000C024086
:100D6000704770B5044690F83C000D4601280DD040
:100D7000012684F83C60022084F83D0042B1042A38
:100D800018D0082A2AD00C2A4DD139E0022070BD93
:100D9000206800F0F3FB2068816941F0080181615F
:100DA0002068816921F004018161206881692A69D4
:100DB000114311E0206800F011FC2068816941F4C2
:100DC000006181612068816921F48061816120680E
:100DD00081692A6941EA0221816124E0206800F0EA
:100DE00033FC2068C16941F00801C1612068C16914
:100DF00021F00401C1612068C1692A69114311E031
:100E0000206800F055FC2068C16941F40061C161AF
:100E10002068C16921F48061C1612068C1692A69C3
:100E200041EA0221C16184F83D60002084F83C0061
:100E300070BD10B5040003D094F83D0010B107E078
:100E4000012010BD002084F83C00204600F00CF882
:100E5000022084F83D00211D206800F01DFB0120C8
:100E600084F83D00002010BD08B500680B49884299
:100E700012D10B48016841F00401016000680022B2
:100E800000F00400009011461E20FFF785FBBDE82E
:100E900008401E20FFF772BB08BD0000000800409C
:100EA000403802407047000010B504460068012237
:100EB00000F056FB0B492068884202D00A4988425C
:100EC00003D1416C41F4004141642068816801F024
:100ED0000701062903D0016841F0010101600020EB
:100EE00010BD0000000001400004014010B50446A0
:100EF0000068002200F034FB114841F21112216811
:100F00009310814202D00F48814209D1086A1042F1
:100F100006D1086A184203D1486C20F400404864A6
:100F20002068016A114206D1016A194203D10168A1
:100F300021F001010160012084F83D00002010BD76
:100F4000000001400004014010B50F4900680F4C3B
:100F50000968884202D12068401C20600CA02168EA
:100F600000F0F2FD2068A0F5C0613F390AD10020F1
:100F7000014620600448FFF7B9FFBDE81040024871
:100F8000FFF7FABD10BD000018000020000000208F
:100F900025640A007047704770B5026804461068FF
:100FA000D168536910F00F0F51D003F0010501F41F
:100FB000907635435DD0C20705D0CA0503D5E26BF4
:100FC00042F00102E263420705D5DA0703D0E26B83
:100FD00042F00202E263820705D5DA0703D0E26B32
:100FE00042F00402E263020705D5DA0703D0E26BA0
:100FF00042F00802E263E26B002A34D0800604D596
:10100000880602D5204600F091FB20684069E16B1C
:10101000C0F3801001F008010143204624D000F005
:1010200077FB2068416949061AD5416921F04001E2
:101030004161606BA0B11B490165606BFFF74DF921
:10104000002810D0606B016DBDE870400847830632
:101050000FD58B060DD52046BDE8704000F066BB6D
:101060002046FFF798FF70BDFFF795FF0020E06373
:1010700070BD030606D50B0604D52046BDE87040BA
:1010800000F0F6BC4006F3D54806F1D5D1682046FD
:1010900021F04001D160202184F8391000F0D2F80D
:1010A00070BD00000117000870B5040004D094F86A
:1010B0003900002510B106E0012070BD84F83850D9
:1010C000204600F023F8242084F839002068C16805
:1010D00021F40051C160204600F074FB20680169D2
:1010E00021F4904101612068416921F02A014161A8
:1010F0002068C16841F40051C160E563202084F894
:10110000390084F83A00002070BD000010B586B0A8
:10111000044614216846FFF78BF818492068884276
:1011200029D11748016841F010010160006800F002
:101130001000059012481438016841F00101016067
:101140000068694600F0010005904FF4C06000900F
:1011500002200190012002900320039007200490B8
:101160000848FFF7CDF8002211462520FFF714FAB2
:101170002520FFF703FA06B010BD00000010014063
:10118000443802400000024070472DE9F84304460D
:1011900090F839001F4616460D46202850D1A5B1BB
:1011A0009EB194F8380001284AD0012084F8380014
:1011B0004FF00008C4F83C80212084F83900FFF784
:1011C0007DF9A6848146E68426E00120BDE8F88307
:1011D000E08C401EE084A0684B46B0F5805F4FF085
:1011E00000024FF080012046009703D000F071FC10
:1011F000E8B90DE000F06DFCC8B928882168C0F39B
:1012000008004860206908B16D1C05E0AD1C03E0D2
:10121000216815F8010B4860E08C0028D8D14B46B6
:10122000002240212046009700F053FC08B1032023
:10123000CCE7202084F8390084F838800020C5E706
:101240000220C3E77047FEE72DE9F04186B0142184
:101250006846FEF7EDFF27480024016841F0800151
:101260000160016801F080010591016841F0080109
:101270000160016801F008010591016841F0400139
:101280000160016801F040010591016841F0010130
:1012900001600068012200F00100174F95030590DE
:1012A00029463846FFF704F9DFF850800122102163
:1012B0004046FFF7FDF80095022601250396CDE98B
:1012C000015469463846FFF71BF80420CDE90004B5
:1012D000694640460294FFF713F81020CDE9000557
:1012E000CDE9024669464046FFF70AF806B0BDE878
:1012F000F081000030380240000C0240001802402B
:10130000F0B589B000240E460746154607941C2107
:1013100068460894FEF78CFF14481349C0E902465A
:1013200004618461C0E90017FFF783FD08B1FEF78F
:10133000D3FF079407A90D480894FFF7EBFB08B10A
:10134000FEF7CAFF60200090CDE9015400226946F3
:1013500006480494FFF705FD08B1FEF7BDFF0348FA
:10136000FFF7D4FC09B0F0BD0008004018000020D1
:101370000C4810B50A4901604FF4E1314160002189
:1013800081600C22C160C0E904128161C161FFF774
:101390008BFE002803D0BDE81040FEF79DBF10BDB6
:1013A0000010014058000020FEE77047704770476A
:1013B000FFF78AB830B593B030216846FEF738FFA2
:1013C00014210CA8FEF734FF19480025016841F0EC
:1013D00080510160006800F080501190154801684C
:1013E00041F4804101600068022400F480401190C3
:1013F00001200090000401908001CDE9064008AA78
:101400000420A82182E813000B906846FFF7DEF95C
:101410000CA90F2081E831004FF4A0500F90E0029A
:10142000109005210CA8FFF7E9F813B030BD0000BB
:1014300040380240007000401048016841F47001DB
:1014400001600F48016841F0010101600C4A002170
:101450000832116002680B4B1A400260031D0A4AF1
:101460001A60026822F48022026005480C30016094
:1014700002495806803908607047000088ED00E096
:1014800000380240FFFFF6FE103000240148FFF74D
:1014900089BB000018000020F0B50268254C264DDD
:1014A000264E274F274B4FF0804CA04209D0604575
:1014B00007D0A84205D0B04203D0B84201D098422C
:1014C00004D122F0700E4A6842EA0E02A0421BD0FC
:1014D000604519D0A84217D0B04215D0B84213D0F9
:1014E000984211D0184DA8420ED0184DA8420BD0EA
:1014F000174DA84208D0174DA84205D0164DA84256
:1015000002D0164DA84203D122F44075CA682A437E
:101510004D6922F080022A4302608A68C2620A682A
:101520008262A04201D0984201D109690163012180
:101530004161F0BD0000014000040040000800408F
:10154000000C004000040140004001400044014004
:101550000048014000180040001C004000200040EE
:1015600010B501F01F030121046A99408C43046205
:10157000016A9A401143016210BD0000F0B5026A91
:1015800022F001020262036A42688469124E24F06A
:1015900073050C682C4323F002058B682B430D4D1B
:1015A000A84201D0B04205D123F00807CB683B43E5
:1015B00023F00403A84201D0B04205D14D6922F4C2
:1015C000407215438A692A434260846149684163D5
:1015D0000362F0BD0000014000040140F0B5026A62
:1015E00022F010020262026A436884690D6824F4E2
:1015F000E64444EA05248D6822F0200242EA0512FE
:101600000F4D104EA84201D0B04206D1CF6822F053
:10161000800242EA071222F04002A84201D0B04202
:1016200007D14D6923F4406343EA85038D6943EA9A
:10163000850343608461496881630262F0BD0000F4
:101640000000014000040140F0B5026A22F48072FB
:101650000262026A4368C46922F4007224F07305CE
:101660000C68124E2C438D6842EA05220E4DA842AA
:1016700001D0B04206D1CF6822F4006242EA0722CC
:1016800022F48062A84201D0B04207D14D6923F410
:10169000405343EA05138D6943EA05134360C4616F
:1016A0004968C1630262F0BD0000014000040140CE
:1016B00030B5026A22F480520262046A4268C36949
:1016C0000D6823F4E64343EA05238D6824F40054AF
:1016D00044EA0534084DA84202D0084DA84204D17E
:1016E0004D6922F4804242EA85124260C361496832
:1016F0000164046230BD00000000014000040140AC
:1017000010B5806B0021C185C184FFF744FC10BD7A
:101710000168CA6822F49072CA6001684A6922F0BE
:1017200001024A61202180F83A10704710B590F804
:101730003A10222901D0022010BD8168B1F5805FE6
:1017400011D00169002901681FD0496801F07F03A9
:10175000816A4A1C82620B70C18D491E0904090C02
:10176000C18518D02BE00269816A002A026852689C
:1017700005D0D2B20A80816A491C8162ECE7C2F3CB
:1017800008020A80816A891CF7E74A68816A4B1C53
:1017900083620A70E0E70168CA6822F02002CA602A
:1017A0000168CA6822F48072CA6001684A6922F03E
:1017B00001024A61202180F83A10FFF7E5FC002081
:1017C00010BD00002DE9F041044600680169E2689F
:1017D00021F44051114301612169A068E269084385
:1017E0006169114322680843D16849F20C63994347
:1017F0000143D16020684169A26921F4407111431D
:101800004161E2696425B2F5004F97489749226823
:101810004FF032083FD08A4201D082427CD1FEF79D
:1018200095FF00EBC00101EB001061688900B0FB7F
:10183000F1F6FEF78BFF00EBC00101EB00106168D1
:101840008900B0FBF1F0B0FBF5F06FF018014843F0
:1018500006EB800108EB0110B0FBF5F000F0F0069C
:10186000FEF774FF00EBC00101EB00106168890016
:10187000B0FBF1F0B0FBF5F006EB0016FEF766FFEB
:1018800000EBC00101EB001061688900B0FBF1F7CB
:10189000FEF75CFFD2E08A4201D082423DD1FEF7E2
:1018A00055FF00EBC00101EB001061684900B0FB7F
:1018B000F1F0B0FBF5F00601FEF748FF00EBC001C8
:1018C00001EB001061684900B0FBF1F7FEF73EFF45
:1018D00000EBC00101EB001061684900B0FBF1F0C2
:1018E000B0FBF5F06FF01801484307EB800108EBFF
:1018F000C100B0FBF5F000F0F80006EB4006FEF783
:1019000025FF00EBC00101EB001061684900B0FB4E
:10191000F1F7FEF71BFF3CE055E0FEF707FF00EB99
:10192000C00101EB001061684900B0FBF1F0B0FBB1
:10193000F5F00601FEF7FAFE00EBC00101EB001026
:1019400061684900B0FBF1F7FEF7F0FE00EBC00163
:1019500001EB001061684900B0FBF1F0B0FBF5F05D
:101960006FF01801484307EB800108EBC100B0FBA2
:10197000F5F000F0F80006EB4006FEF7D7FE00EBAE
:10198000C00101EB001061684900B0FBF1F7FEF700
:10199000CDFE00EBC00101EB001061684900B0FB17
:1019A000F1F0B0FBF5F06FF01801484307EB800150
:1019B00008EBC100B0FBF5F000F0070021683044EF
:1019C0008860BDE8F081FEF7B1FE00EBC00101EBDD
:1019D000001061688900B0FBF1F6FEF7A7FE00EB8E
:1019E000C00101EB001061688900B0FBF1F0B0FBB1
:1019F000F5F06FF01801484306EB800108EB011089
:101A0000B0FBF5F000F0F006FEF790FE00EBC00131
:101A100001EB001061688900B0FBF1F0B0FBF5F05C
:101A200006EB0016FEF782FE00EBC00101EB001092
:101A300061688900B0FBF1F7FEF778FE00EBC001AA
:101A400001EB001061688900B0FBF1F0B0FBF5F02C
:101A50006FF01801484307EB800108EB0110B0FB61
:101A6000F5F000F00F00A9E700140140001001405C
:101A700090F83910212901D0022070478168B1F512
:101A8000805F016A0BD04A1C0262026809785160CB
:101A9000C18C491E0904090CC1840ED017E00988C5
:101AA0000268C1F30801516001690029016A02D08E
:101AB000491C0162ECE7891CFBE70168CA6822F057
:101AC0008002CA600068C16841F04001C160002026
:101AD00070472DE9F041984617460E460446069D8C
:101AE0001DE0681C1BD02DB1FEF7E8FCA0EB080040
:101AF000A84214D92068C16821F4D071C16020685F
:101B0000416921F001014161202084F8390084F805
:101B10003A00002084F838000320BDE8F0812068F6
:101B2000006836EA000004D00020B842D9D0002076
:101B3000F3E70120F9E700000148FFF72DBA0000A4
:101B400058000020FEE700000FB4054B10B503A9B4
:101B5000044A029800F028F810BC5DF814FB00005D
:101B6000FD1C0008140000200907090E002804DBF2
:101B700000F1E02080F80014704700F00F0000F141
:101B8000E02080F8141D704702E008C8121F08C149
:101B9000002AFAD170477047002001E001C1121FEE
:101BA000002AFBD1704700002DE9FF4F89B09B460A
:101BB0000446002506E025280BD05A460B9990478D
:101BC000641C6D1C20780028F5D10DB02846BDE8B6
:101BD000F08F0027B8460122474900E0074314F878
:101BE000013F203B02FA03F00842F7D120782E286B
:101BF00019D114F8010F47F004072A280ED06FF00E
:101C00002F022078A0F1300109290CD808EB8801B7
:101C100002EB410100EB0108641CF2E70A98641C26
:101C200050F8048B0A9020780028CED0642808D081
:101C3000692806D075281ED05A460B9990476D1C0E
:101C400058E00A994FF00A0901C90A91002802DAFE
:101C500040422D2102E0390504D52B218DF82010BA
:101C6000012103E0F90704D02021F7E78A4608AEF6
:101C70000DE00021FAE70A994FF00A0901C90A911B
:101C8000F7E74946FEF7DFFA303106F8011D002874
:101C9000F7D1ADEB060000F12009780701D44FF031
:101CA0000108C84502DDA8EB090000E000208046DD
:101CB000002706E008A85A46C05D0B9990476D1CA6
:101CC0007F1C5745F6DB04E030205A460B999047BD
:101CD0006D1CB8F10001A8F10108F5DC05E016F86B
:101CE000010B5A460B9990476D1CB9F10001A9F1FF
:101CF0000109F4DC641C65E70928010013B54FF6FF
:101D0000FF73012269460248FFF73FFA00981CBDA5
:101D100058000020012291030E48FEF7C9FB012262
:101D200010210D48FEF7C4FBFEF7D6FBFFF742FB80
:101D3000FFF78AFA28224F2140F24E30FFF7E0FAEF
:101D4000FFF716FB0548FEF706FF00210348FFF7E3
:101D5000ABF8FEE7000C024000180240180000201B
:101D6000000000000000000001020304060708094B
:101D70000000000001020304981D0008000000207C
:101D800018000000881B0008B01D00081800002083
:101D900080040000981B0008000000000100000003
:101DA00010000000000000000024F400000000000B
:040000050800018965
:00000001FF
