:020000040800F2
:10000000080600209D010008972200082B1900080F
:1000100095220008910800088129000800000000CE
:10002000000000000000000000000000892300081C
:100030009308000800000000992200088B230008A4
:10004000B7010008B7010008B7010008B7010008B0
:10005000B7010008B7010008B7010008B7010008A0
:10006000B701000895080008B7010008B7010008AB
:10007000B7010008B7010008B7010008B701000880
:10008000B7010008B7010008B7010008B701000870
:10009000B7010008B7010008B7010008B701000860
:1000A000B7010008B7010008B7010008B701000850
:1000B000B7010008B7010008B7010008B701000840
:1000C000B7010008B7010008B7010008B701000830
:1000D000B701000875290008B7010008B70100083A
:1000E000B7010008B7010008B7010008B701000810
:1000F000B7010008B7010008B7010008B701000800
:10010000B7010008B7010008B7010008B7010008EF
:10011000B7010008B7010008B7010008692400080A
:10012000B7010008B7010008B7010008B7010008CF
:10013000B7010008B7010008B7010008B7010008BF
:10014000B7010008B7010008B7010008B7010008AF
:10015000B7010008B7010008B7010008B70100089F
:10016000B7010008B7010008B7010008B70100088F
:10017000B7010008B7010008B7010008000000003F
:10018000B7010008B7010008DFF80CD000F05CFBF5
:1001900000480047013D0008080600200648804747
:1001A00006480047FEE7FEE7FEE7FEE7FEE7FEE75C
:1001B000FEE7FEE7FEE7FEE71524000889010008D8
:1001C0002DE9F05F0546002092469B46884606468C
:1001D000814640241BE0284641464746224600F01F
:1001E000F8F853465A46C01A914110D311461846A2
:1001F000224600F0DFF82D1A67EB01084F46224631
:100200000120002100F0D6F817EB00094E41201E16
:10021000A4F10104DFDC484631462A464346BDE8E6
:10022000F09FD2B201E000F8012B491EFBD27047CB
:100230000022F6E710B513460A4604461946FFF7B2
:10024000F0FF204610BD2DE9FE4F81EA030404F0C3
:10025000004421F0004100944FF0000B23F00043D4
:1002600050EA01045ED052EA03045BD0C3F30A549F
:10027000C1F30A552C44A4F2F3340194A0FB0254B8
:10028000C1F3130141F48011C3F3130343F480134A
:1002900001FB024400FB034E840A970A44EA81549E
:1002A00047EA8357A4FB076802958D0A05FB07857B
:1002B0004FEA932C04FB0C542705029D4FEA065885
:1002C00047EA1637B5EB08056EEB070C870E920E62
:1002D00047EA811742EA8312A7FB0201B6EB0B0142
:1002E00064EB00042B0D43EA0C335E1844EB1C5006
:1002F000DA465146E7FB0201C5F313044FEA0B331C
:1003000043EA14534FEA0432019C43EA0603A4F182
:100310000C040294009CCDE900B400F0B0F803B0E6
:10032000BDE8F08F00200146F9E700F0004230F010
:1003300000400AD0C10D01F56071C0F3160042EA19
:100340000151C20840071143704700200146704721
:1003500001F0004330B421F0004150EA010206D020
:100360000A0DA2F56072C1F31301002A02DC30BC51
:1003700000207047440F44EAC104C100E01830BCBB
:1003800000EBC25000F035B830B50B4601460020F6
:100390002022012409E021FA02F59D4205D303FA47
:1003A00002F5491B04FA02F52844151EA2F10102C8
:1003B000F1DC30BD202A04DB203A00FA02F10020F3
:1003C00070479140C2F1200320FA03F31943904093
:1003D0007047202A04DB203A21FA02F000217047FE
:1003E00021FA02F3D040C2F120029140084319469D
:1003F00070470029A8BF7047401C490008BF20F083
:100400000100704710B4B0FA80FC00FA0CF050EA1A
:10041000010404BF10BC704749B1CCF1200421FA9B
:1004200004F411FA0CF118BF012121430843A3EB96
:100430000C01CB1D4FEA00614FEA102042BF0020A3
:1004400010BC704700EBC35010440029A4BF10BC7F
:100450007047401C490008BF20F0010010BC7047E5
:1004600010B5141E73F1000408DA401C41F10001BC
:1004700092185B411A4301D120F0010010BD2DE913
:10048000F04D92469B4611B1B1FA81F202E0B0FA0A
:1004900080F220329046FFF78DFF04460F4640EA77
:1004A0000A0041EA0B0153465A46084313D011464D
:1004B00053EA010019D0C8F140025046FFF789FF06
:1004C00005460E46504659464246FFF773FF08431D
:1004D00005D0012004E020463946BDE8F08D00201B
:1004E000054346EAE0762C4337430A986305E40A5D
:1004F000A0EB08000022FD0A44EA47540A3002D566
:1005000000200146E9E7010510196941DDE90845C8
:1005100000196941BDE8F04DA2E72DE9FE4F804684
:1005200081EA0300C00F0C46009021F0004123F047
:100530000045B8EB0200A94105D24046214690464D
:100540001C460B46024623F00040104347D0270DBF
:10055000C7F30A00C3F30A510290401A01904028E1
:100560006BDAC3F3130040F4801B0098924620B16D
:100570000023D2EB030A63EB0B0B01985946C0F141
:1005800040025046FFF716FF06460D4650465946B4
:10059000019A00F06BF910EB08006141002487EA32
:1005A000115284EAE7731A4340D0009A62B3019A69
:1005B000012A4FEA075215DC001B61EB02014FF0E4
:1005C000004202EA0752CDE90042001C41F58011C9
:1005D00032462B46FFF753FF03B0BDE8F08F40468D
:1005E0002146F9E7001B61EB0201001C41F5801375
:1005F00000185B412018A2F5001747EB030140EA01
:10060000D570B6196D4111E06D084FEA360645EA1E
:10061000C0754FEA0752001B61EB0201001C41F557
:10062000801149084FEA30000019514132462B46EB
:1006300003B0BDE8F04FFFF713BF00980122400060
:100640000023D0EB020263EBE073009821464FEAEF
:10065000E074B8EB000061EB0401E9E783F00043CC
:100660005BE781F0004158E72DE9F04D81EA030492
:1006700004F0004B21F0004514464FF0000A23F02F
:10068000004150EA050220D054EA01021DD0C5F312
:100690000A570246C5F31303C1F31300C1F30A5608
:1006A00040F4801543F48013A7EB0608101BD646D0
:1006B00008F2FD3873EB050002D308F1010801E0F0
:1006C00092185B41B8F1000F03DA00200146BDE843
:1006D000F08D00204FF48011064684460EE0171B73
:1006E00073EB050705D3121B63EB050306434CEAC6
:1006F000010C49084FEA300092185B4150EA0107AB
:10070000EDD152EA030012D082EA040083EA050127
:10071000084305D0101BAB4106D20122002306E09E
:1007200000224FF0004302E06FF0010253101AEB79
:1007300006004CEB085110EB0A0041EB0B01BDE841
:10074000F04DFFF78DBE2DE9F04D00231A461B1A20
:100750008A4103DB00200146BDE8F08DC1F30A5257
:10076000C1F3130141F480154FF0000BD10702D102
:1007700000186D41521E0027044640F2FF11384612
:1007800001EB620A3E468046024600204FF480118B
:10079000FFF71FFEC2197141BB1846EB0100B4EB15
:1007A000030C75EB000C04D3E41A65EB0005174647
:1007B0000E46241908F101006D4180463428E3DD1E
:1007C000F91946EB0600091BA84103D24FF0FF328E
:1007D000134601E0002213461BEB070046EB0A51CB
:1007E000BDE8F04DFFF73CBEC1F30A52C1F313015F
:1007F00040F2FF3341F480119A4202DA00200146B0
:10080000704740F233439A42A2F2334202DC524232
:10081000FFF7DFBDFFF7CEBD30B5041E71F1000458
:1008200004DB4FF00044404264EB0101141E73F1FD
:10083000000405DB1C464FF00043524263EB040307
:10084000994208BF904230BD064C074D06E0E06873
:1008500040F0010394E8070098471034AC42F6D307
:10086000FFF796FC083F0008283F0008202A06DB17
:10087000CB17203A41FA02F043EAE07306E041FA6E
:1008800002F3D040C2F1200291400843194670475C
:10089000FEE77047082000F02DB8704790F835103B
:1008A000022903D08021416501207047052180F88D
:1008B00035100068016821F00101016000207047D7
:1008C00070B5044600F000F90546601C02D00448EB
:1008D0000078044400F0F8F8401BA042FAD370BD41
:1008E0002C000020082802D101490120C86070476F
:1008F0001C000020044910B50A68024202D00860BA
:10090000FFF7F0FF10BD0000143C01402DE9F84F47
:10091000DFF87CB100224FF001084FF0030A4FF0DE
:100920000F090BF1040E00BF0B6808FA02F4234014
:10093000A3426ED14D68022D01D0122D0ED1D508E3
:1009400000EB850CDCF820505607F70E09FA07F685
:10095000B5430E69BE402E43CCF8206006685500B2
:100960000F790AFA05FC07F0030726EA0C06AF40E8
:10097000374307604E68012E05D0022E03D0112E9A
:1009800001D0122E0ED18668CF6826EA0C06AF4041
:10099000374387604668A6430C79C4F3001494403B
:1009A00034434460C6688C6826EA0C06AC40344385
:1009B000C4604C68E40065D5364C256845F4804534
:1009C0002560246822F0030504F480440094324C2E
:1009D0002E19D6F8084895072F0F09FA07F5AC43EA
:1009E0002E4DA84201D1002524E02D4DA84201D171
:1009F00001251FE02B4DA84201D102251AE02A4D06
:100A0000A84201D1032515E0284DA84202D10425B2
:100A100010E037E0264DA84201D105250AE0254D1A
:100A2000A84201D1062505E0234DA84201D10725A2
:100A300000E00825BD402543C6F80858DBF8004013
:100A40005D464E689C43F60300D51C432C60DEF8DF
:100A5000004075464E689C43B60300D51C432C608D
:100A60000B4D08352C684E689C43F60200D51C439C
:100A70002C60074D0C352C684E689C43B60200D59F
:100A80001C432C60521C102AFFF44EAFBDE8F88FB7
:100A9000003C014044380240003001400000024068
:100AA0000004024000080240000C02400010024016
:100AB0000014024000180240001C02400AB181618B
:100AC00070470904FBE70000014880687047000098
:100AD0002C00002002488168027811448160704730
:100AE0002C0000200B4810B5016841F40071016032
:100AF000016841F480610160016841F48071016026
:100B0000032000F06FF8002000F006F800F024F851
:100B1000002010BD003C024070B50D4D04464FF45E
:100B20007A712878B1FBF0F00A490968B1FBF0F05E
:100B300000F045FC48B9102C07D200222146501E77
:100B400000F030F800206C6070BD012070BD000026
:100B50002C000020380000200A4808B5016841F444
:100B600080410160006800F4804000900548001F4B
:100B7000016841F080510160006800F080500090F1
:100B800008BD000044380240002809DB00F01F02C5
:100B9000012191404009800000F1E020C0F80011DF
:100BA00070470000F0B40E4B1B680C46C3F30223E1
:100BB000C3F10705042D00D90425191D072901D209
:100BC000002300E0DB1E012606FA05F1491E214044
:100BD00099409E40761E16403143F0BC01F0FABEAB
:100BE0000CED00E0064900F0070208684FF6FF032D
:100BF000184040EA0220034A104308607047000092
:100C00000CED00E00000FA052DE9F0470E46050066
:100C100065D0DFF81481D8F80000F7B200F00F00BB
:100C2000B04207D288F80070D8F8000000F00F003A
:100C3000B04254D128683D4C810712D5400703D5F6
:100C4000206840F4E05020602878000703D5206831
:100C500040F4604020602068A96820F0F00008435C
:100C600020602878C0072DD03049686808390128ED
:100C700012D0022813D0032811D00968890700294F
:100C80002DDA216821F0030101432160FFF71CFFE9
:100C9000814641F2883A0EE009688903EFE7096866
:100CA0008901ECE7FFF710FFA0EB0901514502D9DC
:100CB0000320BDE8F0872068696800F00C00B0EB05
:100CC000810FEFD1D8F80010404601F00F01B1427A
:100CD00007D90770006800F00F00B04201D0012072
:100CE000E7E72878400705D52068E96820F4E05058
:100CF000084320602878000706D52068296920F479
:100D0000604040EAC100206000F036F82168084ADF
:100D1000C1F30311515CC840064908600020FFF789
:100D2000FBFE0020C5E70000003C024008380240FE
:100D3000FE3D0008380000200448054900680968A5
:100D4000044AC1F38221515CC8407047380000203A
:100D5000083802400E3E000804480549006809684A
:100D6000044AC1F34231515CC8407047380000204A
:100D7000083802400E3E0008154810B5006810F013
:100D80000C02144813D04110042A0FD0082A0ED1A7
:100D90000F4C241F2268236802F03F025B0207D534
:100DA0002068C0F38810A0FB010106E0084610BDD2
:100DB0002168C1F38811A1FB00010023FFF700FAAD
:100DC0002168C1F30141491C4900B0FBF1F010BD9D
:100DD000083802400024F4002DE9F84F050076D0D1
:100DE0002878DFF8F8B2BE4CC00749D0DBF8001015
:100DF0005846C1F38101012908D00068C0F3810081
:100E000002280AD1201D0068400206D52068800310
:100E100036D568680028E2D032E06868B0F5803FD7
:100E200010D0B0F5A02F206810D020F480302060C2
:100E3000206820F4802020606868A0B1FFF744FE9D
:100E400006460CE0206840F48030F4E740F480204F
:100E50002060F7E7FFF738FE801B642873D820680E
:100E60008003F7D50CE0FFF72FFE064605E000BF34
:100E7000FFF72AFE801B6428F0D820688003F7D48F
:100E80002878DFF8608280074FF000093ED5DBF854
:100E90000010584611F00C0F09D00068C0F3810013
:100EA00002280BD18D48001F0068400206D420683C
:100EB000800715D5E868012809D111E0E868B8B1C4
:100EC0000120C8F80000FFF7FFFD064605E002E13B
:100ED000FFF7FAFD801B0228C0D820688007F7D5ED
:100EE0002068296920F0F80040EAC10020600DE088
:100EF000C8F80090FFF7E8FD064604E0FFF7E4FDC0
:100F0000801B02281FD820688007F7D428780007A4
:100F100022D5724E744869696C3671B10121016045
:100F2000FFF7D2FD074604E0FFF7CEFDC01B022805
:100F300009D830688007F7D50EE0C0F80090FFF7B9
:100F4000C3FD074605E083E0FFF7BEFDC01B022896
:100F50007ED830688007F7D42878400768D5DFF856
:100F60007CA100270AF1380ADAF80000C0000BD48F
:100F7000DAF8001041F08051CAF80010DAF80000E9
:100F8000012700F080500090584E3068C00510D402
:100F9000306840F480703060FFF796FD009005E007
:100FA000FFF792FD0099401A022851D83068C00519
:100FB000F6D54A4EA868683601280FD00528306853
:100FC00010D020F001003060306820F00400306064
:100FD000A868B8B1FFF778FD00900FE0306840F0E6
:100FE0000100F4E740F004003060F7E7FFF76CFD24
:100FF0000099411A41F28830814264D830688007F4
:10100000F4D50EE0FFF760FD009007E0FFF75CFD10
:101010000099411A41F28830814254D830688007E3
:10102000F4D42FB1DAF8001021F08051CAF8001082
:10103000A869C0B3DBF80010C1F3810102294AD0CE
:101040000228484607D0C8F86000FFF73DFD00E0E1
:1010500039E005463AE04746C8F86000FFF734FD3E
:10106000064604E0FFF730FD801B02282BD82068DD
:101070008001F7D4D5E907010843A96A1C4A490849
:1010800002EB01416A6A41EA8211084395F82C108B
:1010900040EA01611148001F016001203866FFF736
:1010A00013FD054605E014E0FFF70EFD401B022886
:1010B00009D820688001F7D50BE000BFFFF704FDD9
:1010C000401B022802D90320BDE8F88F2068800168
:1010D000F4D40020F8E70120F6E7000008380240C9
:1010E0000038024000004742800E47420070004036
:1010F0000000FFFF70B5040005D00025A56294F83C
:10110000510010B106E0012070BD84F85050204617
:1011100000F030F8022084F851002068016821F0C6
:1011200040010160D4E901010843D4E903121143ED
:10113000084361690843218B01F400710843E169A8
:101140000843216A0843A16A084321680860A0692E
:10115000042101EA1040616A084321684860206860
:10116000C16921F40061C1616565012084F8510005
:10117000002070BD10B586B0044614216846FFF704
:1011800057F813492068884220D11248002102688C
:1011900042F480520260006800F4805005900D48CF
:1011A0001438026842F001020260006800F0010099
:1011B0000590E02000900220CDE90101032003907A
:1011C0000520049069460448FFF7A0FB06B010BD57
:1011D0000030014044380240000002402DE9F84F41
:1011E000044690F8500000270A9E1D4692468B4602
:1011F0004FF0010901280ED0012084F85000FFF7BC
:1012000063FC804694F85100616801280CD0B1F568
:10121000827F07D102E00220BDE8F88FA16809B9FA
:10122000042801D00227C2E0BBF1000F27D0BAF199
:10123000000F24D01DB394F85100042802D00520DB
:1012400084F8510000206065C4F838A0E587A587C0
:10125000C4F830B0E586A586206460642068016823
:10126000490603D4016841F040010160E068B0F52F
:10127000006F606805D0E8B3012D46D07FE00127FC
:1012800095E008B1012D39D1206B21680088C86034
:10129000206B801C2063E08E401EE0862EE02068DC
:1012A000816889070FD5E18E69B1B9F1010F0AD1C3
:1012B000216B0988C160206B801C2063E08E401E7A
:1012C000E0864FF0000920688168C9070CD0E18FE3
:1012D00051B1C068A16B0880A06B801CA063E08F37
:1012E000401EE0874FF00109FFF7EEFBA0EB08007E
:1012F000B04200E009E001D3701C50D1E08E00281C
:10130000CDD1E08F0028CAD13FE0206B2168007862
:101310000873206B401C2063E08E401EE0862EE0A8
:101320002068816889070FD5E18E69B1B9F1010F95
:101330000AD1216B09780173206B401C2063E08E79
:10134000401EE0864FF0000920688168C9070CD074
:10135000E18F51B1C068A16B0870A06B401CA06305
:10136000E08F401EE0874FF00109FFF7ADFBA0EBD7
:101370000800B04202D3701C01D010E07EB1E08EB4
:101380000028CDD1E08F0028CAD142463146204600
:1013900000F084FF28B101272020606507E00327C3
:1013A00005E0A06818B92068C16880680090012035
:1013B00084F85100002084F8500038462CE710B51E
:1013C000401EB0F1807F01D3012010BD4FF0E0241A
:1013D00060610F21601701F0FDFA0020A061072075
:1013E0002061002010BD7047704770B590F83C2018
:1013F000012A19D0012400F83C4F0222427050F813
:101400003C3C5A689D6822F070060A68496832437D
:1014100025F0800529435A6050F83C2C91604470B7
:1014200000210170084670BD022070BD10B5040097
:1014300003D094F83D0010B107E0012010BD00205A
:1014400084F83C00204600F00DF8022084F83D00AE
:10145000211D206801F00EF8012084F83D000020D5
:1014600010BD000008B500680B49884212D10B4836
:10147000016841F0200101600068002200F02000B6
:10148000009011463720FFF78DFBBDE8084037205C
:10149000FFF77ABB08BD000000140040403802404E
:1014A0000168CA6842F00102CA600068816801F000
:1014B0000701062903D0016841F001010160002005
:1014C0007047704770B50446006801694FF0000529
:1014D000C943890715D4C168C943890711D4E91ED6
:1014E000016101202077206880698007204602D0B2
:1014F000FFF7E7FF04E000F098F8204600F096F8C8
:10150000257720680169C943490717D4C168C943D1
:10151000490713D46FF0040101610220207720688D
:10152000806910F4407F204602D0FFF7CAFF04E034
:1015300000F07BF8204600F079F8257720680169F3
:10154000C943090716D4C168C943090712D46FF00B
:1015500008010161042020772068C06980072046C7
:1015600002D0FFF7AEFF04E000F05FF8204600F085
:101570005DF8257720680169C943C90617D4C16899
:10158000C943C90613D46FF0100101610820207708
:101590002068C06910F4407F204602D0FFF791FF19
:1015A00004E000F042F8204600F040F8257720687B
:1015B0000169C943C90708D1C168C943C90704D132
:1015C000891E0161204600F033F820680169C94393
:1015D000090609D4C168C943090605D46FF0800122
:1015E00001612046FFF7FFFE20680169C9434906F3
:1015F00009D4C168C943490605D46FF040010161AF
:10160000204600F039F820680169C94389060BD4E7
:10161000C168C943890607D46FF0200101612046E3
:10162000BDE87040FFF7E0BE70BD70477047000036
:1016300010B50E4900680968884215D10C4AA2F11C
:101640000C01A1F10C0000F071F9094809491838A2
:1016500090ED060A81ED000A90ED070A81ED010A7E
:1016600090ED080A81ED020A10BD000088010020FB
:10167000100100201C0000207047704770B5026800
:1016800004461068D168536910F00F0F51D003F071
:10169000010501F4907635435DD0C20705D0CA0537
:1016A00003D5E26B42F00102E263420705D5DA0797
:1016B00003D0E26B42F00202E263820705D5DA074B
:1016C00003D0E26B42F00402E263020705D5DA07B9
:1016D00003D0E26B42F00802E263E26B002A34D0EE
:1016E000800604D5880602D5204600F03DFF20681C
:1016F0004069E16BC0F3801001F00801014320460E
:1017000024D000F023FF2068416949061AD54169B9
:1017100021F040014161606BA0B11B490165606B24
:10172000FFF7BCF8002810D0606B016DBDE8704079
:10173000084783060FD58B060DD52046BDE87040BF
:1017400000F012BF2046FFF798FF70BDFFF795FF2E
:101750000020E06370BD030606D50B0604D52046C5
:10176000BDE8704001F0A2B84006F3D54806F1D5B7
:10177000D168204621F04001D160202184F8391041
:1017800000F0D2F870BD00003D25000870B50400DF
:1017900004D094F83900002510B106E0012070BD96
:1017A00084F83850204600F023F8242084F83900CB
:1017B0002068C16821F40051C160204600F020FF7C
:1017C0002068016921F4904101612068416921F09C
:1017D0002A0141612068C16841F40051C160E5639C
:1017E000202084F8390084F83A00002070BD000001
:1017F00010B586B0044614216846FEF719FD184955
:101800002068884229D11748016841F01001016021
:10181000006800F01000059012481438016841F08B
:10182000010101600068694600F0010005904FF475
:10183000C0600090022001900120029003200390DC
:10184000072004900848FFF761F800221146252080
:10185000FFF7A8F92520FFF797F906B010BD0000A3
:1018600000100140443802400000024070472DE95A
:10187000F843044690F839001F4616460D462028C6
:1018800050D1A5B19EB194F8380001284AD001206A
:1018900084F838004FF00008C4F83C80212084F818
:1018A0003900FFF711F9A6848146E68426E001207D
:1018B000BDE8F883E08C401EE084A0684B46B0F59C
:1018C000805F4FF000024FF080012046009703D068
:1018D00001F01DF8E8B90DE001F019F8C8B9288841
:1018E0002168C0F308004860206908B16D1C05E05C
:1018F000AD1C03E0216815F8010B4860E08C00285E
:10190000D8D14B46002240212046009700F0FFFF2F
:1019100008B10320CCE7202084F8390084F838800F
:101920000020C5E70220C3E77047FEE72DE9F0413C
:101930000D461E490646A1F130001446074600F048
:10194000A7FA1A490C39A1F1300000F07BFA174AC6
:101950003846183AA2F1240100F040F8134B3C3B02
:1019600093ED000A85ED000A93ED010A85ED010A69
:1019700093ED020A85ED020A93ED030A86ED000A53
:1019800093ED040A86ED010A93ED050A86ED020A3D
:1019900093ED090A84ED000A93ED0A0A84ED010A29
:1019A00093ED0B0A84ED020ABDE8F0818C00002063
:1019B00010B500F007FA05A000F0E4FF0649BDE805
:1019C000104001F10C0000F0A1B90000C7EBB5C850
:1019D000B4FDD0A3D7BC0000800000202DE9F04169
:1019E000B94C0D462DED088B16460746D4ED000A7E
:1019F00094ED010A94ED021A60EEA09A20EE809A0E
:101A000020EE818AD4ED030A60EE008A61EE01AA1D
:101A100060EE20BA21EE20AA20EEA0BA91EC020AD4
:101A200095ED021A60EE201A61EE811AF5EEC01AE9
:101A3000F1EE10FA7ED020EE000A00EEA00A01EED0
:101A4000010A10EE100AFEF770FC41EC100B01F0D9
:101A5000E7FB51EC100BFEF77BFC00EE100AD5ED16
:101A6000000AC0EE801AC5ED001AD5ED010A80EE1D
:101A7000802A85ED012AD5ED020A80EE801A3BEE20
:101A8000C80AB0EE008A60EE082A39EE0A0A20EE93
:101A9000083A39EEE80A30EE6A0A85ED021A30EEAD
:101AA0000B0A62EE000A41EE430A21EE221A01EE11
:101AB000C01A21EE830A02EE620A94ED042ADFEDD9
:101AC000831A00EEA12A84ED042AD4ED052A41EE02
:101AD000212AC4ED052AD4ED062A40EE212AC4EDC0
:101AE000062AD7ED002ADFED7A1A40EEA12A32EE5F
:101AF000823A87ED003AD7ED010A41EE210A94EDD2
:101B0000051A70EE812AC7ED012AD7ED020A40EED0
:101B1000210A94ED060A30EE802A87ED022A94ED20
:101B2000010AD4ED020A94ED031A20EE434A00EEB6
:101B3000E24A00E0C3E001EE424AD4ED001ADFEDD4
:101B4000653A201D44EE231AC4ED001A23EE214A03
:101B500000EE824A01EE624A04EE230A22EEA14A16
:101B600000EE424A22EE212A61EEA11A00EE222A5C
:101B700001EE034A40EE001A44EE230A00EEC32AA7
:101B800040EEA01A02EE231A80EC030A41EE011A7D
:101B900011EE900AFEF7C9FB41EC100B01F040FB7F
:101BA00051EC100BFEF7D4FB00EE100AD4ED000A46
:101BB000C0EE80AAC4ED00AAD4ED010AC0EE808A6E
:101BC000C4ED018A94ED021AC1EE000AC4ED020AC6
:101BD00094ED031A81EE00BA84ED03BA96ED020A81
:101BE00097ED021ADFED3C1AB8EE00AA60EE88BA53
:101BF00001EE210A86ED020A28EE8A0A20EE280A62
:101C00000BEEE00AF7EE000A30EE200A10EE100AA2
:101C1000FEF78BFB2BEE8B0A6AEE880A41EC190B60
:101C200000EEA80A10EE100AFEF77FFB41EC100B45
:101C3000B0EE491AF0EE691A01F0FAF99FED279B10
:101C400051EC100B53EC192BFEF7FDFAFEF780FB5D
:101C5000306094ED010AD4ED030A94ED021A20EEEF
:101C60000A0A20EE200AD4ED000A60EE880A00EE8F
:101C7000810A10EE100AFEF758FB41EC100B00F041
:101C8000BBFE53EC192B51EC100BFEF7DCFAFEF700
:101C90005FFB9FED142A706096ED000AF0EE420A99
:101CA000114800F023F8104886ED000A96ED010A6D
:101CB000F0EE420A001D00F019F886ED010ABDECB5
:101CC000088BBDE8F0810000000000206F12033C8B
:101CD00000007A446F12033A6F12833A66666666B2
:101CE00066A64C400AD7233C44000020B0EE401AC0
:101CF000B7EE000AD0ED001A30EE600A20EE210A9D
:101D000000EE810A80ED000A704700002DE9F041E5
:101D100005469FED290A0C46002000BF05EB800117
:101D200081ED000A04EB8001401C81ED000A0328CC
:101D3000F4DB224F00264FF4FA780220FEF7C0FDB4
:101D400000F034F900F0C6F85FF0000005EB800207
:101D500007EB800192ED000AD1ED030A30EE200A74
:101D600082ED000A04EB8002D1ED060A92ED000A32
:101D7000401C032830EE200A82ED000AE6DB761CC8
:101D80004645DADB00209FED0E0A00BF05EB80011F
:101D9000D1ED000A80EE801A81ED001A04EB80017B
:101DA000401CD1ED000A032880EE801A81ED001A54
:101DB000ECDBBDE8F081000000000000D400002052
:101DC0000000FA4310B500216B2000F08FF9642069
:101DD000FEF776FD11216A2000F088F96420FEF7F5
:101DE0006FFD0721192000F081F96420FEF768FDDE
:101DF00006211A2000F07AF96420FEF761FD18210F
:101E00001B2000F073F96420FEF75AFD09211C2005
:101E100000F06CF96420FEF753FD752000F034F9F2
:101E2000702808D04FF4FA7403A000F0ABFD2046F0
:101E3000FEF746FDF8E710BD4552524F5220494487
:101E40000A00000070B50C46054600F043F80F4844
:101E5000D4ED000A90ED060A30EE600A85ED000A26
:101E600090ED070AD4ED010A30EE600A85ED010A13
:101E700090ED080AD4ED020A30EE600AF7EE000A8F
:101E800030EE200A85ED020A70BD0000D40000206B
:101E900070B50C46054600F089F80D48D4ED000AEF
:101EA00090ED030A30EE600A85ED000A90ED040A19
:101EB000D4ED010A30EE600A85ED010A90ED050AC5
:101EC000D4ED020A30EE600A85ED020A70BD000012
:101ED000D400002070B53B202DED048B00F0D4F829
:101EE00004463C2000F0D0F840EA042000B200EEA6
:101EF000100AB1EE008ADFED2B8AB8EEC00A284C3A
:101F00009FED299A60EE080AE080A4F10C0080EEB3
:101F1000A80AF0EE490A84ED060AFFF7E7FEA4F1ED
:101F200030053D2085ED030A00F0AEF806463E2060
:101F300000F0AAF840EA062000B200EE100A208164
:101F4000A4F10800B8EEC00A60EE080A80EEA80A04
:101F5000F0EE490A84ED070AFFF7C8FE85ED040A92
:101F60003F2000F091F80646402000F08DF840EA4E
:101F7000062000B200EE100A6081201FB8EEC00AF1
:101F800060EE080A80EEA80AF0EE490A84ED080A1D
:101F9000FFF7ACFE85ED050ABDEC048B70BD0000BB
:101FA000D400002000120047CDCCCC3D70B54320BA
:101FB0002DED048B00F068F80446442000F064F82E
:101FC00040EA042000B200EE100A9FED2C8ADFEDFB
:101FD0002C8AB8EEC00A284C9FED2A9A60EE080AB7
:101FE0002080A4F1180080EEA80AF0EE490A84EDE2
:101FF000030AFFF77BFEA4F13005452085ED000ABA
:1020000000F042F80646462000F03EF840EA06207E
:1020100000B200EE100A6080A4F11400B8EEC00A0D
:1020200060EE080A80EEA80AF0EE490A84ED040A80
:10203000FFF75CFE85ED010A472000F025F8064613
:10204000482000F021F840EA062000B200EE100A15
:10205000A080A4F11000B8EEC00A60EE080A80EE7D
:10206000A80AF0EE490A84ED050AFFF73FFE85ED68
:10207000020ABDEC048B70BDD40000200000FA44BD
:10208000001200470AD7233C31B584B000208DF8F8
:102090000400FF208DF808009DF81000114D40F05D
:1020A00080008DF81000002210212846FEF706FD62
:1020B0004FF47A74012301AA04A90B480094FFF796
:1020C0008DF8012301AA02A907480094FFF786F8BA
:1020D000012210212846FEF7F1FC9DF8040005B00E
:1020E00030BD0000000802403001002033B583B04D
:1020F00000200F4D8DF80400024610212846FEF7FF
:10210000DDFC4FF47A74012301AA03A90948009465
:10211000FFF764F8012301AA04A906480094FFF719
:102120005DF8012210212846FEF7C8FC05B030BD3D
:10213000000802403001002030B587B01421684605
:10214000FEF776F81E48016841F0800101600168E1
:1021500001F080010591016841F001010160016811
:1021600001F001010591016841F00401016000687E
:10217000144D00F004000590012210212846FEF7BE
:102180009DFC0820009010480224CDE90104694616
:102190000E48FEF7BBFB01211020CDE90214CDE96A
:1021A000000169462846FEF7B1FB002211460920CE
:1021B000FEF7F8FC0920FEF7E7FC07B030BD000091
:1021C00030380240000802400000111000000240B8
:1021D000104810B50E4901604FF482714160002132
:1021E00002228160C0E9031201224261520282612F
:1021F0003022C0E90721416281620A21C162FEF7F3
:1022000079FF002803D0BDE81040FEF746BB10BDA3
:1022100000300140300100201CB500240E4800941D
:102220000C49019401604FF45271C0E9011464211A
:102230008461C160FFF7FAF808B1FEF72EFB009445
:10224000694605480194FFF7D0F8002801D0FEF751
:1022500024FB1CBD00140040880100200C4810B570
:102260000A4901604FF4E1314160002181600C2294
:10227000C160C0E904128161C161FFF787FA0028DB
:1022800003D0BDE81040FEF708BB10BD00100140B0
:10229000C8010020FEE770477047000038B50446CB
:1022A0001248134B0068B0FBF3F04FF47A735843B5
:1022B00000906068B0F5827F0DD10B46009200223D
:1022C0008021204600F016F870B1606D40F02000CB
:1022D0006065032038BD009830B1401E0090206832
:1022E0008068C0430006F6D5002038BD38000020C5
:1022F00000366E012DE9F0411D4617460E46044694
:10230000DDF8188008E0681C06D0FEF7DDFBA0EBC6
:102310000800A8420BD255B12068806836EA000058
:1023200030D00020B842EED10020BDE8F081206816
:10233000416821F0E00141606068B0F5827F0BD117
:10234000A068B0F5004F02D0B0F5806F04D12068CE
:10235000016821F040010160A06AB0F5005F09D179
:102360002068016821F4005101602068016841F48F
:1023700000510160012084F85100002084F85000D1
:102380000320D2E70120CDE77047FEF7A3BB000092
:1023900030B593B030216846FDF74AFF14210CA8F0
:1023A000FDF746FF19480025016841F080510160A2
:1023B000006800F0805011901548016841F4804198
:1023C00001600068022400F4804011900120009018
:1023D000000401908001CDE9064008AA0420A8214C
:1023E00082E813000B906846FEF7F6FC0CA90F205C
:1023F00081E831004FF4A0500F90E00210900521C9
:102400000CA8FEF701FC13B030BD000040380240BC
:10241000007000401048016841F4700101600F48ED
:10242000016841F0010101600C4A0021083211608D
:1024300002680B4B1A400260031D0A4A1A600268C8
:1024400022F48022026005480C30016002495806DF
:10245000803908607047000088ED00E000380240D5
:10246000FFFFF6FE103000240148FFF72BB80000F4
:1024700088010020F0B50268254C264D264E274FD6
:10248000274B4FF0804CA04209D0604507D0A842AE
:1024900005D0B04203D0B84201D0984204D122F016
:1024A000700E4A6842EA0E02A0421BD0604519D065
:1024B000A84217D0B04215D0B84213D0984211D0DC
:1024C000184DA8420ED0184DA8420BD0174DA84267
:1024D00008D0174DA84205D0164DA84202D0164D7F
:1024E000A84203D122F44075CA682A434D6922F0FC
:1024F00080022A4302608A68C2620A688262A0423D
:1025000001D0984201D10969016301214161F0BD07
:10251000000001400004004000080040000C0040A2
:1025200000040140004001400044014000480140D7
:1025300000180040001C00400020004010B5806BD7
:102540000021C185C184FFF798F810BD0168CA68F1
:1025500022F49072CA6001684A6922F001024A615D
:10256000202180F83A10704710B590F83A102229CF
:1025700001D0022010BD8168B1F5805F11D00169E2
:10258000002901681FD0496801F07F03816A4A1C55
:1025900082620B70C18D491E0904090CC18518D0D7
:1025A0002BE00269816A002A0268526805D0D2B223
:1025B0000A80816A491C8162ECE7C2F308020A8042
:1025C000816A891CF7E74A68816A4B1C83620A703A
:1025D000E0E70168CA6822F02002CA600168CA68A0
:1025E00022F48072CA6001684A6922F001024A61DD
:1025F000202180F83A10FFF739F9002010BD0000C3
:102600002DE9F041044600680169E26821F4405177
:10261000114301612169A068E269084361691143BE
:1026200022680843D16849F20C6399430143D160A1
:1026300020684169A26921F4407111434161E26956
:102640006425B2F5004F9748974922684FF0320849
:102650003FD08A4201D082427CD1FEF77DFB00EB65
:10266000C00101EB001061688900B0FBF1F6FEF7D4
:1026700073FB00EBC00101EB001061688900B0FB47
:10268000F1F0B0FBF5F06FF01801484306EB800164
:1026900008EB0110B0FBF5F000F0F006FEF75CFB74
:1026A00000EBC00101EB001061688900B0FBF1F0A4
:1026B000B0FBF5F006EB0016FEF74EFB00EBC00199
:1026C00001EB001061688900B0FBF1F7FEF744FBF5
:1026D000D2E08A4201D082423DD1FEF73DFB00EBC1
:1026E000C00101EB001061684900B0FBF1F0B0FBE4
:1026F000F5F00601FEF730FB00EBC00101EB001026
:1027000061684900B0FBF1F7FEF726FB00EBC00162
:1027100001EB001061684900B0FBF1F0B0FBF5F08F
:102720006FF01801484307EB800108EBC100B0FBD4
:10273000F5F000F0F80006EB4006FEF70DFB00EBAD
:10274000C00101EB001061684900B0FBF1F7FEF732
:1027500003FB3CE055E0FEF7EFFA00EBC00101EBB4
:10276000001061684900B0FBF1F0B0FBF5F0060124
:10277000FEF7E2FA00EBC00101EB001061684900CE
:10278000B0FBF1F7FEF7D8FA00EBC00101EB001047
:1027900061684900B0FBF1F0B0FBF5F06FF0180193
:1027A000484307EB800108EBC100B0FBF5F000F0F7
:1027B000F80006EB4006FEF7BFFA00EBC00101EBA4
:1027C000001061684900B0FBF1F7FEF7B5FA00EBC5
:1027D000C00101EB001061684900B0FBF1F0B0FBF3
:1027E000F5F06FF01801484307EB800108EBC100DA
:1027F000B0FBF5F000F00700216830448860BDE8C8
:10280000F081FEF799FA00EBC00101EB001061685E
:102810008900B0FBF1F6FEF78FFA00EBC00101EB87
:10282000001061688900B0FBF1F0B0FBF5F06FF0CB
:102830001801484306EB800108EB0110B0FBF5F0EE
:1028400000F0F006FEF778FA00EBC00101EB001093
:1028500061688900B0FBF1F0B0FBF5F006EB001603
:10286000FEF76AFA00EBC00101EB00106168890015
:10287000B0FBF1F7FEF760FA00EBC00101EB0010CE
:1028800061688900B0FBF1F0B0FBF5F06FF0180162
:10289000484307EB800108EB0110B0FBF5F000F0B6
:1028A0000F00A9E7001401400010014090F8391012
:1028B000212901D0022070478168B1F5805F016A4B
:1028C0000BD04A1C0262026809785160C18C491E13
:1028D0000904090CC1840ED017E009880268C1F30D
:1028E0000801516001690029016A02D0491C016296
:1028F000ECE7891CFBE70168CA6822F08002CA6025
:102900000068C16841F04001C160002070472DE9B6
:10291000F041984617460E460446069D1DE0681C89
:102920001BD02DB1FEF7D0F8A0EB0800A84214D9B7
:102930002068C16821F4D071C1602068416921F02C
:1029400001014161202084F8390084F83A00002018
:1029500084F838000320BDE8F0812068006836EA7A
:10296000000004D00020B842D9D00020F3E70120B5
:10297000F9E700000148FEF781BE0000C801002011
:10298000FEE700000FB4054B10B503A9044A0298F6
:1029900000F0FEFD10BC5DF814FB0000E93C0008EF
:1029A0003C00002003B401984100009850EAC12087
:1029B00018BF04204A0D18BF40F0010040F2FF721A
:1029C000B2EB515F08BF40F00200012808BF0520AC
:1029D00002B070470907090E002804DB00F1E0206F
:1029E00080F80014704700F00F0000F1E02080F83C
:1029F000141D70470000000070B5C1482DED020B9A
:102A00002DED0E8B82B0119D25F000449FEDBEDBB5
:102A10009FEDBFEB84423EDBA4F140511098A1F141
:102A20007F6108430FD0BC48844202DC28D1109853
:102A300030B39DED100B02B0BDEC0E8B02B0BDE8C3
:102A4000704000F0A6BC9DED100B53EC1D2B51EC1B
:102A5000100BFDF7F8FB9DED100B41EC180B53EC40
:102A60001E2B51EC100BFDF7EEFB53EC182BFDF772
:102A700054FD41EC100B02B0BDEC0E8B02B070BDEA
:102A8000012000F0CDFC02B0BDEC0E8B02B0BDE821
:102A9000704000F095BCA1489FEDA18B844256DAAE
:102AA0009DED100BB4F1795F0ADA51EC100BFFF7D2
:102AB00079FF042808BF00F093FC9DED100BDAE7C6
:102AC00053EC102B51EC100BFDF7BDFB41EC190B37
:102AD00095480621B0EE490AF0EE690A784400F004
:102AE000DCFB53EC192B51EC100BFDF7ACFB41EC6C
:102AF0001A0B8E48B0EE490AF0EE690A04217844B8
:102B000000F0CBFB53EC192B51EC100BFDF79BFBAA
:102B100053EC182BFDF701FD41EC100B51EC1A0B97
:102B200053EC102BFDF7A0FDCDE900019DED000B4E
:102B300053EC102B9DED100B51EC100BFDF783FBAC
:102B40009DED101B53EC112BFDF7E7FCD2E09DED42
:102B5000100B51EC100B01F0BAF853EC182BFDF7E9
:102B600080FD9FED730BCDE9000153EC102B9DED23
:102B7000000B51EC100BFDF766FB41EC190B6E4896
:102B80000621B0EE490AF0EE690A784400F085FBB0
:102B900053EC192B51EC100BFDF755FB41EC1B0BC3
:102BA0006648B0EE490AF0EE690A0421784400F064
:102BB00074FB53EC192B51EC100BFDF744FB53EC59
:102BC000182BFDF7AAFC41EC1C0B51EC190B01F082
:102BD000DFF841EC180B5A489FED5BABA04222DCBA
:102BE00053EC1C2B51EC1B0BFDF73EFDCDE9000116
:102BF0009DED000B51EC180B53EC102BFDF723FB54
:102C000053EC182BFDF789FC53EC1A2BFDF71BFB3B
:102C100053EC1D2BFDF722FD53EC1E2BFDF721FD80
:102C200041EC100B5FE08DED008B002000909DEDDE
:102C3000000B51EC180B53EC102BFDF76EFC9DEDC7
:102C4000000B41EC1E0B53EC102B51EC100BFDF75D
:102C5000FAFA53EC192BFDF704FD53EC1E2BFDF78C
:102C600003FD41EC190B53EC1C2B51EC1B0BFDF736
:102C7000FBFC41EC1B0B53EC1A2B51EC190BFDF731
:102C8000E2FA53EC1D2BFDF7ECFC41EC190B53EC75
:102C90001A2B51EC180BFDF7D6FA53EC1B2BFDF752
:102CA000D2FA53EC192BFDF7D9FC9DED000B41EC4A
:102CB000180B53EC1A2B51EC100BFDF7C4FA9FEDD7
:102CC000249B53EC192BFDF7CCFC41EC100B51EC81
:102CD000180B53EC102BFDF7C1FC53EC192BFDF72F
:102CE000C0FC41EC100B002D3FF7C5AE51EC100BB2
:102CF00081F0004141EC100BBDE600000000000037
:102D00000000F03F00000000075C143326A6913C51
:102D1000182D4454FB21F93F0000F07F0000E03FF4
:102D2000000000000000F03F3813000046130000D0
:102D3000000000000000E03F8A120000981200002E
:102D40003333EF3F000000000000000000000040AF
:102D5000182D4454FB21E93F70B59B482DED020B23
:102D60002DED068B079D25F00044A04218DC974806
:102D7000844202DC0AD1069840B19DED060BBDEC01
:102D8000068B02B0BDE8704000F003BB002DCCBF45
:102D90009FED8F0B9FED900BBDEC068B02B070BDCD
:102DA0008F48A04215DD8F48A042D8BF4FF0FF34B6
:102DB00058DD9DED060B51EC100BFFF7F3FD0428D9
:102DC00008BF00F00DFB9DED060BBDEC068B02B0BD
:102DD00070BD9DED060B51EC100B00F078FFCDE9B6
:102DE000060181489FED828BA0423CDD8248A042D3
:102DF0001FDD00249FED82AB9DED060B53EC1A2BDB
:102E000051EC100BFDF789FB9DED060B41EC190B06
:102E100053EC1A2B51EC100BFDF715FA53EC182B51
:102E2000FDF71CFC53EC192BFDF71EFCCDE9060148
:102E300049E09DED060B012453EC182B51EC100BCF
:102E4000FDF76BFB9DED060B41EC190B53EC182BBA
:102E500051EC100BFDF702FC53EC192BFDF704FCB1
:102E6000CDE906012FE06848A0421FDD02249FED56
:102E7000689B9DED060B53EC192B51EC100BFDF7E5
:102E8000E2F953EC182BFDF748FB9DED060B41ECE6
:102E9000180B53EC192B51EC100BFDF7DFFB53EC27
:102EA000182BFDF7E1FBCDE906010CE09DED060BCB
:102EB000032453EC102B9FED580B51EC100BFDF736
:102EC000D3FBCDE906019DED060B53EC102B51EC25
:102ED000100BFDF7B8F941EC180B53EC182BFDF76C
:102EE000B2F941EC190B4E480621B0EE490AF0EE5A
:102EF000690A784400F0D1F953EC182B51EC100B0F
:102F0000FDF7A1F941EC180B4648B0EE490AF0EE86
:102F1000690A0521784400F0C0F953EC192B51ECF3
:102F2000100BFDF790F941EC100B51EC180B53EC22
:102F3000102B002C0EDAFDF7F0FA9DED061B53EC7A
:102F4000112BFDF780F99DED061B53EC112BFDF7BE
:102F500088FB35E0FDF7E1FA9DED061B53EC112BE4
:102F6000FDF771F941EC100B2F48784400EBC400D9
:102F700090ED001B51EC100B53EC112BFDF76EFB89
:102F80009DED061B53EC112BFDF768FB41EC100B7C
:102F90002648784400EBC40090ED001B51EC100B68
:102FA00053EC112BFDF75DFB41EC100B002DA2BF84
:102FB000BDEC068B02B070BD51EC100B81F00041EE
:102FC00041EC100B01E70000000010440000F07F0E
:102FD000182D4454FB21F93F182D4454FB21F9BF0F
:102FE0000000DC3F0000203E0000F33F0000000036
:102FF000000000000000F03F0000E63F000000007D
:1030000000000000000000400080034000000000BD
:10301000000000000000F83F000000000000F0BFCA
:10302000DA0F0000900F00001A0F0000D20E00000F
:1030300070B56B4E2DED040B2DED028B82B0DDF8DB
:103040001CC0DDE905235C422CF000411C4341EA31
:10305000D474049D22F00040B44205D86C422C4345
:1030600040EAD474B4420BD99DED061B9DED040BD0
:1030700002B0BDEC028B04B0BDE8704000F093B923
:10308000ACF14054A4F17F641C430BD0022404EA49
:10309000AC7444EAD27405439FED538B9FED542BDF
:1030A00007D015E09DED040B51EC100B00F007FE6E
:1030B00042E0002C11BF012C9DED040B02B0BDECD1
:1030C000028B04BF04B070BD022C38D0032C3BD05F
:1030D0000B439FED491B9FED4A0B0AD0B14218D11B
:1030E000B04209D121F0804120F080400791059045
:1030F0000FE0002A15DA10E0434B7B44002C08BF98
:1031000093ED000B0DD0012C10D0022C17D0032C06
:103110001AD0B0421DD1002A03DAB0EE410AF0EE17
:10312000610A02B0BDEC028B04B070BD93ED000BE0
:1031300051EC100B81F0004141EC100BF1E7B0EEC7
:10314000480AF0EE680AECE7B0EE420AF0EE620AD6
:10315000E7E7401A00153C28C8BF8DED000B19DCCD
:10316000BCF1000FBEBF10F13C0F9FED290B8DEDA0
:10317000000B0FDB9DED060B53EC102B9DED040BAC
:1031800051EC100BFDF770FA00F0A1FD00F097FD77
:10319000CDE90001002C08BF9DED000BC1D0012C32
:1031A00010D0022C9FED1C0B53EC102B9DED000B4F
:1031B00051EC100B0DD0FDF751FA53EC182BFDF725
:1031C0004DFAB9E7019880F0004001909DED000BA9
:1031D000A7E7FDF743FA53EC182BFDF742FAABE7EC
:1031E0000000F07F00000000182D4454FB2109402E
:1031F000182D4454FB2109C0182D4454FB21F9BF5C
:10320000182D4454FB21F93F020E0000000000007D
:103210000000000000000000075C143326A6A13C5B
:1032200000B52DED048BB0EE409AF0EE609A83B0BD
:1032300051EC190BFDF787FA41EC180B18EE100A48
:1032400018EE901A8DED008B002818BF012008435E
:1032500020F00040C0F17F6000F1E040C00F14D0CA
:1032600019EE101A19EE900A8DED009B002918BF77
:103270000121084320F00040C0F17F6000F1E040F0
:10328000C00F04BF012000F0CBF8B0EE480A03B035
:10329000F0EE680ABDEC048B00BD70B504462DED60
:1032A000028B4D1E00EBC500B0EE408AF0EE608A46
:1032B00090ED000B35F0060017D053EC182B51ECB5
:1032C000100BFCF7C0FF41EC100B6D1E04EBC500AA
:1032D00090ED001B51EC100B53EC112BFDF71DF979
:1032E00041EC100B35F00600E7D1022D36D0042D4D
:1032F0001CD0062D1CBFBDEC028B70BD53EC182BEF
:1033000051EC100BFCF79FFF94ED0A1B53EC112BB3
:10331000FDF703F953EC182BFCF795FF94ED081B10
:1033200053EC112BFDF7F9F841EC100B53EC182B73
:1033300051EC100BFCF787FF94ED061B53EC112B9F
:10334000FDF7EBF853EC182BFCF77DFF94ED040B25
:1033500053EC102BFDF7E1F841EC100B53EC182B5C
:1033600051EC100BFCF76FFF94ED021B53EC112B8B
:10337000FDF7D3F853EC182BFCF765FF94ED001B19
:1033800053EC112BFDF7C9F8BDEC028B41EC100B8F
:1033900070BD10B553EC102B51EC100BFDF7BDF8C0
:1033A00041EC100B10BD10B553EC112B51EC100B70
:1033B000FDF7B3F841EC100B10BD00000000000059
:1033C0009FED050B10B553EC102B51EC100BFDF7D6
:1033D0004BF941EC100B10BD000000000000000094
:1033E0009FED050B10B553EC102B51EC100BFCF7B7
:1033F0002AFF41EC100B10BD00000000000000107F
:1034000002E008C8121F08C1002AFAD170477047AD
:10341000002001E001C1121F002AFBD1704700000B
:103420000149086070470000400000202DE9FF5F5F
:10343000DDE90220010DDDF838B0024318D044F672
:103440001050A1F2FF3141430D140F98012820D0F4
:10345000A5EB0B00401C5FEA000A4FF00004474E4A
:10346000DFF81C91A046504616D5CAF1000728E0A7
:103470000F98012443A2012808D0002100980F9B37
:10348000C0E90021C0E90243BDE8FF9F6FEA0B01DC
:10349000F4E7CBF10000DEE7074612E0F80707D0BB
:1034A0002246334640464946FCF7CDFE80468946D3
:1034B0002246334610461946FCF7C5FE04460E4622
:1034C0007F10002FEAD1DDE90201BAF1000F424678
:1034D0004B4602DAFCF7B7FE01E0FDF7C5F80446FB
:1034E0000E460022284BFDF797F903D84FF0FF3026
:1034F000014607E00022254B20463146FDF70DF836
:10350000FDF772F9102409E0002C0ADB0A220023DF
:10351000FCF756FE019B30321A55641E50EA010238
:10352000F2D1641C019AC4F1110314440F9A012AC8
:1035300003D0012208430DD10AE0084304D0002043
:103540004FF0110B0F9080E7A3EB0B056D1E0DE004
:103550005B4504DD4FF0000205F1010504E003DAEC
:103560004FF00002A5F10105002AECD000980F9958
:10357000C0E90231C0E9004586E7000000002440B0
:103580000000F03F300000000000F0430000E03F8A
:103590002DE9FF4F95B09B468946064600250FE270
:1035A000252877D100242746F84A0121059400E018
:1035B000044316F8013F203B01FA03F01042F7D113
:1035C00030782A2811D06FF02F033078A0F1300224
:1035D000092A16D8059A44F0020402EB820203EB92
:1035E00042021044761C0590EFE759F8042B05922F
:1035F000002A03DA504244F40054059044F00204D7
:10360000761C30782E2816D116F8010F44F00404E9
:103610002A280DD06FF02F023078A0F13003092B4B
:1036200009D807EB870302EB4303C718761CF3E7BF
:1036300059F8047B761C30786C280FD006DC4C28B7
:1036400017D068280DD06A2814D104E0742810D04F
:103650007A280FD10DE044F400140AE044F48014F9
:1036600001E044F440147278824202D104F58014DF
:10367000761C761C307866280BD013DC582877D05F
:1036800009DC002875D04528F6D04628F4D0472814
:103690001AD19DE118E0632835D0642879D06528D7
:1036A00012D195E1702873D008DC6728F1D0692821
:1036B0006FD06E280DD06F2806D1B5E073282CD0BE
:1036C000752875D0782874D05A46179990476D1C84
:1036D00075E1C4F30250022809D003280DD0D9F8AF
:1036E000001004280DD00D6009F1040967E1D9F834
:1036F0000010EA17C1E90052F6E7D9F800100D8072
:10370000F2E70D70F0E719F8041B8DF800100020A7
:103710008DF80100EA46012003E059F804AB4FF0B0
:10372000FF3061074FF0000102D40DE008F1010104
:103730008846B9420FDA8045F8DB1AF808100029EC
:10374000F4D108E008F1010188468142FADB1AF859
:1037500008100029F6D105985B46A0EB0807214622
:103760003846179A00F094FA284400EB080507E061
:103770004DE029E10DE01AF8010B5A4617999047E0
:10378000B8F10108F7D25B4621463846179A13E193
:1037900042E00A220092C4F302524FF0000A022AC9
:1037A00008D059F804CB032A4FEAEC710AD00DE097
:1037B00029E02AE009F1070121F00702F2E802C13D
:1037C000914609E00FFA8CFC4FEAEC71042A03D110
:1037D0004FFA8CFC4FEAEC71002907DA0A46002107
:1037E000DCF1000C61EB02012D2202E0220504D580
:1037F0002B228DF80420012203E0E20701D02022D1
:10380000F7E7904659E00A2102E010220DE010216E
:103810004FF0000A00910BE010224FF0000A44F034
:1038200004040827009203E008224FF0000A0092E7
:10383000C4F30252022A05D059F804CB0021032A0E
:1038400008D009E009F1070121F00702F2E802C1FE
:10385000914605E01FFA8CFC042A01D10CF0FF0C04
:103860004FF00008220728D5702806D0009B83F06F
:10387000100353EA0A0305D00EE040228DF804201D
:10388000012208E05CEA010206D030228DF8042013
:103890008DF8050002229046009B83F0080353EA4E
:1038A0000A030AD15CEA010201D1620705D5302280
:1038B0008DF804204FF001087F1E582804D034A052
:1038C00003900EA802900DE036A0F9E7534660463B
:1038D000009AFCF775FC84460398825C0298401EAF
:1038E000029002705CEA0100F0D1029806A9081A61
:1038F00000F1200A600702D524F4803400E001279B
:10390000574502DDA7EB0A0000E0002000EB0A01AA
:10391000009005984144401A0590E00306D45B46A8
:103920002146179A059800F0B3F90544002706E0F0
:1039300001A85A46C05D179990476D1C7F1C4745EA
:10394000F6DBE0030CD55B462146179A059800F09C
:103950009FF9054404E030205A46179990476D1CA2
:103960000099481E00900029F5DC08E002980299B1
:103970005A460078491C0291179990476D1CBAF17C
:103980000001AAF1010AF1DC65E10000092801004B
:1039900030313233343536373839616263646566C5
:1039A0000000000030313233343536373839414287
:1039B000434445460000000000F058F90544761CD9
:1039C000307800287FF4ECAD19B02846BDE8F08FC0
:1039D000620700D4062709F1070222F0070CFCE871
:1039E0000223E14603F000485FEA080C02D00FF220
:1039F000702C0DE05FEA045C02D50FF2682C07E042
:103A00005FEAC47C02D00FF2602C01E0AFF2700CD0
:103A10004FF0FF3823F00043CDF850C065280CD09C
:103A200006DC452809D046281DD047283DD13DE079
:103A3000662818D067287ED138E00021112F01DBDD
:103A4000112000E0781CCDE9000106A90EA8FFF7BF
:103A5000EDFCDDE90F010E9A03910021009207F1C0
:103A6000010A04914DE04FF000400097CDE90110AC
:103A700006A90EA8FFF7DAFCDDE90F0203920E9B00
:103A800011990022DDF80CA00093049211B9791C61
:103A900000EB010AB7EB0A0004D4C0F1FF3007F1D4
:103AA000010A0490AAEB0700019044E0012F00DA1C
:103AB00001270021112F01DD112000E03846CDE95A
:103AC000000106A90EA8FFF7B1FCDDE90F010E9A6F
:103AD0000391002104910092BA4621070CD4039966
:103AE000514500DA8A46BAF1010F05DD009AAAF1C4
:103AF0000101515C302908D0B84202DA10F1040FFC
:103B000006DA0121CDE9011015E0AAF10101E9E78A
:103B1000002805DC049901440491AAEB000102E0AD
:103B2000411C514500DD8A460499401A401C019011
:103B30004FF000400290200704D40198504501DB6B
:103B4000CDF8048000208DF84F0002980DF14F074A
:103B5000B0F1004F25D02B200E9002984FF00208B4
:103B600000280CDA404202902D200E9007E00A2136
:103B70000298FCF709FC3031029007F8011DB8F1FA
:103B80000001A8F10108F2DC02980028EFD1791EAB
:103B90000E980870307800F0200040F0450007F8DB
:103BA000020D12A8C01B00F107081498007800B19C
:103BB000012000EB0A01019801EBE07105984144F6
:103BC000401A401E0590E00306D45B462146179A32
:103BD000059800F05DF805441498007818B15A462D
:103BE000179990476D1CE00324D55B462146179A30
:103BF000059800F04DF805441CE00498002807DB08
:103C0000DDE90301884203DD0098405C179901E07B
:103C1000179930205A469047049805F10105401C39
:103C200004900198401E019004D12E205A46179905
:103C300090476D1CBAF10001AAF1010ADDDC05E034
:103C400017F8010B5A46179990476D1CB8F10001FF
:103C5000A8F10108F4DC5B462146179A0598ABE60B
:103C60002D0000002B000000200000002DE9F04195
:103C7000044600251E461746880404D405E039464C
:103C80002020B0476D1C641EF9D52846BDE8F081A0
:103C90002DE9F041044600251E469046C80301D593
:103CA000302700E02027880404D505E04146384647
:103CB000B0476D1C641EF9D52846BDE8F08110B5EB
:103CC00041EC100BFFF748F851EC100B10BD82B01F
:103CD000CDE9000121F0004001909DED000B02B004
:103CE00051EC100B7047000013B54FF6FF73012223
:103CF00069460248FDF7BBFD00981CBDC8010020C5
:103D0000FCF7F0FEFEF744FBFEF716FAFEF7A6FA04
:103D1000FEF75EFAFEF780FAFDF74AFE1448FDF75B
:103D2000BFFB14A0FEF72EFE164C2068FCF7FDFA30
:103D300041EC100B14A053EC102BFEF723FE60682F
:103D4000FCF7F3FA41EC100B0FA053EC102BFEF72D
:103D500019FEA068FCF7E9FA41EC100B0AA053EC3D
:103D6000102BFEF70FFE09A0FEF70CFEDDE70000AA
:103D70008801002068656C6C6F7720776F726C64C7
:103D8000202000001C00002025660A000A00000018
:103D900000B52DED048B83B041EC190BFCF7D3FC7F
:103DA00041EC180B18EE100A18EE901A8DED008BEE
:103DB000002818BF0120084320F00040C0F17F60B8
:103DC00000F1E040C00F14D019EE101A19EE900A5D
:103DD0008DED009B002918BF0121084320F0004011
:103DE000C0F17F6000F1E040C00F04BF0120FFF789
:103DF00017FB51EC180B03B0BDEC048B00BD0000A9
:103E0000000000000000010203040607080900008A
:103E10000000010203040000555555555555C53F96
:103E20007D6FEB0312D6D4BF5544880E55C1C93FF0
:103E30003B8F68B52882A4BF88B20175E0EF493F87
:103E400009F7FD0DE13D023F4B2D8A1C273A03C0C7
:103E5000C88A599CE52A004059018D1B6C06E6BFB3
:103E600082922EB1C5B8B33F4FBB610567ACDD3F51
:103E7000182D4454FB21E93F9BF681D20B73EF3F91
:103E8000182D4454FB21F93FE2652F227F2B7A3C09
:103E9000075C143326A6813CBDCBF07A8807703CC2
:103EA000075C143326A6913CC4EB98999999C9BF35
:103EB000711623FEC671BCBF6D9A74AFF2B0B3BF6A
:103EC0009AFDDE522DDEADBF2F6C6A2C44B4A2BF2A
:103ED0000D5555555555D53FFF8300922449C23F96
:103EE0006E204CC5CD45B73F513DD0A0660DB13FCA
:103EF000EB0D76244B7BA93F11DA22E33AAD903FDC
:103F00000000000000000000283F00080000002022
:103F100044000000003400086C3F0008440000200A
:103F2000C4050000103400080000803F00000000BD
:103F30000000000000000000000000000000000081
:103F40000000000000000000000000000000000071
:103F50000000000001000000100000000000000050
:0C3F60000024F40000000000000000003D
:040000050800018965
:00000001FF
